:1009DD000210001902120019020C0001020E000192
:1008F300758901E4F508F509D3E5099FE5089E50DC
:100903002AE4F50AF50B758CA8758AE0C28DD28CA2
:10091300308DFD050BE50B7002050A6414450A7062
:0C092300E50509E50970D1050880CD222A
:10099600C290C293C2A0C2A3C291C294C2A1C2A471
:0909A600C292C295C2A2C2A522B0
:1009C700D290D295D2A0D2A51208F3D294D2A47F06
:0609D700057E000208F39A
:1009AF00D292D293D2A2D2A31208F3D291D2A1D2D1
:0809BF00A47F057E000208F38D
:030003000209EE01
:0D09EE00C0E0050DE50D7002050CD0E032F3
:030013000209FBE4
:0D09FB00C0E0050FE50F7002050ED0E032E0
:10092F00E50D250FFDE50C350EFC7E007F3C120812
:10093F009EAB07AA06AC0CAD0D12088C8E108F1152
:10094F00AC0EAD0FAE02AF0312088C8E128F137563
:0B095F000C00750D01750E00750F0AED
:01096A00226A
:10096B00E4F590F5A07580FF75A885D2A8D288AF65
:10097B0011AE101209C712099612092FAF13AE123E
:0B098B001209AF12099612092F80E438
:03000000020800F3
:0C080000787FE4F6D8FD758113020847EC
:10088C00EF8DF0A4A8F0CF8CF0A428CE8DF0A42E80
:02089C00FE223A
:10089E00BC000BBE0029EF8DF084FFADF022E4CC3E
:1008AE00F875F008EF2FFFEE33FEEC33FCEE9DEC07
:1008BE00984005FCEE9DFE0FD5F0E9E4CEFD22ED4D
:1008CE00F8F5F0EE8420D21CFEADF075F008EF2F97
:1008DE00FFED33FD4007985006D5F0F222C398FD88
:0508EE000FD5F0EA2225
:10080C0002096BE493A3F8E493A34003F68001F28E
:10081C0008DFF48029E493A3F85407240CC8C333ED
:10082C00C4540F4420C8834004F456800146F6DFBC
:10083C00E4800B01020408102040809009DDE47E66
:10084C00019360BCA3FF543F30E509541FFEE493B1
:10085C00A360010ECF54C025E060A840B8E493A378
:10086C00FAE493A3F8E493A3C8C582C8CAC583CAA3
:10087C00F0A3C8C582C8CAC583CADFE9DEE780BE5B
:0109ED000009
:00000001FF
